{
  "_format": "hh-sol-artifact-1",
  "contractName": "aval_20",
  "sourceName": "contracts/aval_20.sol",
  "abi": [
    {
      "inputs": [
        {
          "internalType": "string",
          "name": "_name",
          "type": "string"
        },
        {
          "internalType": "string",
          "name": "_symbol",
          "type": "string"
        },
        {
          "internalType": "address",
          "name": "_owner",
          "type": "address"
        }
      ],
      "stateMutability": "nonpayable",
      "type": "constructor"
    },
    {
      "inputs": [
        {
          "internalType": "address",
          "name": "spender",
          "type": "address"
        },
        {
          "internalType": "uint256",
          "name": "allowance",
          "type": "uint256"
        },
        {
          "internalType": "uint256",
          "name": "needed",
          "type": "uint256"
        }
      ],
      "name": "ERC20InsufficientAllowance",
      "type": "error"
    },
    {
      "inputs": [
        {
          "internalType": "address",
          "name": "sender",
          "type": "address"
        },
        {
          "internalType": "uint256",
          "name": "balance",
          "type": "uint256"
        },
        {
          "internalType": "uint256",
          "name": "needed",
          "type": "uint256"
        }
      ],
      "name": "ERC20InsufficientBalance",
      "type": "error"
    },
    {
      "inputs": [
        {
          "internalType": "address",
          "name": "approver",
          "type": "address"
        }
      ],
      "name": "ERC20InvalidApprover",
      "type": "error"
    },
    {
      "inputs": [
        {
          "internalType": "address",
          "name": "receiver",
          "type": "address"
        }
      ],
      "name": "ERC20InvalidReceiver",
      "type": "error"
    },
    {
      "inputs": [
        {
          "internalType": "address",
          "name": "sender",
          "type": "address"
        }
      ],
      "name": "ERC20InvalidSender",
      "type": "error"
    },
    {
      "inputs": [
        {
          "internalType": "address",
          "name": "spender",
          "type": "address"
        }
      ],
      "name": "ERC20InvalidSpender",
      "type": "error"
    },
    {
      "anonymous": false,
      "inputs": [
        {
          "indexed": true,
          "internalType": "address",
          "name": "owner",
          "type": "address"
        },
        {
          "indexed": true,
          "internalType": "address",
          "name": "spender",
          "type": "address"
        },
        {
          "indexed": false,
          "internalType": "uint256",
          "name": "value",
          "type": "uint256"
        }
      ],
      "name": "Approval",
      "type": "event"
    },
    {
      "anonymous": false,
      "inputs": [
        {
          "indexed": true,
          "internalType": "address",
          "name": "from",
          "type": "address"
        },
        {
          "indexed": true,
          "internalType": "address",
          "name": "to",
          "type": "address"
        },
        {
          "indexed": false,
          "internalType": "uint256",
          "name": "value",
          "type": "uint256"
        }
      ],
      "name": "Transfer",
      "type": "event"
    },
    {
      "inputs": [
        {
          "internalType": "string",
          "name": "_name",
          "type": "string"
        },
        {
          "internalType": "uint256",
          "name": "_amount",
          "type": "uint256"
        }
      ],
      "name": "addItems",
      "outputs": [],
      "stateMutability": "nonpayable",
      "type": "function"
    },
    {
      "inputs": [
        {
          "internalType": "address",
          "name": "owner",
          "type": "address"
        },
        {
          "internalType": "address",
          "name": "spender",
          "type": "address"
        }
      ],
      "name": "allowance",
      "outputs": [
        {
          "internalType": "uint256",
          "name": "",
          "type": "uint256"
        }
      ],
      "stateMutability": "view",
      "type": "function"
    },
    {
      "inputs": [
        {
          "internalType": "address",
          "name": "spender",
          "type": "address"
        },
        {
          "internalType": "uint256",
          "name": "value",
          "type": "uint256"
        }
      ],
      "name": "approve",
      "outputs": [
        {
          "internalType": "bool",
          "name": "",
          "type": "bool"
        }
      ],
      "stateMutability": "nonpayable",
      "type": "function"
    },
    {
      "inputs": [
        {
          "internalType": "address",
          "name": "account",
          "type": "address"
        }
      ],
      "name": "balanceOf",
      "outputs": [
        {
          "internalType": "uint256",
          "name": "",
          "type": "uint256"
        }
      ],
      "stateMutability": "view",
      "type": "function"
    },
    {
      "inputs": [
        {
          "internalType": "uint256",
          "name": "amount",
          "type": "uint256"
        }
      ],
      "name": "burn",
      "outputs": [],
      "stateMutability": "nonpayable",
      "type": "function"
    },
    {
      "inputs": [],
      "name": "decimals",
      "outputs": [
        {
          "internalType": "uint8",
          "name": "",
          "type": "uint8"
        }
      ],
      "stateMutability": "view",
      "type": "function"
    },
    {
      "inputs": [
        {
          "internalType": "address",
          "name": "_address",
          "type": "address"
        }
      ],
      "name": "getBalance",
      "outputs": [
        {
          "internalType": "uint256",
          "name": "",
          "type": "uint256"
        }
      ],
      "stateMutability": "view",
      "type": "function"
    },
    {
      "inputs": [],
      "name": "getItems",
      "outputs": [
        {
          "components": [
            {
              "internalType": "uint256",
              "name": "id",
              "type": "uint256"
            },
            {
              "internalType": "string",
              "name": "itemName",
              "type": "string"
            },
            {
              "internalType": "uint256",
              "name": "price",
              "type": "uint256"
            }
          ],
          "internalType": "struct aval_20.items[]",
          "name": "",
          "type": "tuple[]"
        }
      ],
      "stateMutability": "view",
      "type": "function"
    },
    {
      "inputs": [],
      "name": "itemID",
      "outputs": [
        {
          "internalType": "uint256",
          "name": "",
          "type": "uint256"
        }
      ],
      "stateMutability": "view",
      "type": "function"
    },
    {
      "inputs": [
        {
          "internalType": "address",
          "name": "reciever",
          "type": "address"
        },
        {
          "internalType": "uint256",
          "name": "amount",
          "type": "uint256"
        }
      ],
      "name": "mint",
      "outputs": [],
      "stateMutability": "nonpayable",
      "type": "function"
    },
    {
      "inputs": [],
      "name": "name",
      "outputs": [
        {
          "internalType": "string",
          "name": "",
          "type": "string"
        }
      ],
      "stateMutability": "view",
      "type": "function"
    },
    {
      "inputs": [],
      "name": "owner",
      "outputs": [
        {
          "internalType": "address",
          "name": "",
          "type": "address"
        }
      ],
      "stateMutability": "view",
      "type": "function"
    },
    {
      "inputs": [
        {
          "internalType": "uint256",
          "name": "_id",
          "type": "uint256"
        }
      ],
      "name": "redeemToken",
      "outputs": [],
      "stateMutability": "nonpayable",
      "type": "function"
    },
    {
      "inputs": [
        {
          "internalType": "uint256",
          "name": "",
          "type": "uint256"
        }
      ],
      "name": "redeem_items",
      "outputs": [
        {
          "internalType": "uint256",
          "name": "id",
          "type": "uint256"
        },
        {
          "internalType": "string",
          "name": "itemName",
          "type": "string"
        },
        {
          "internalType": "uint256",
          "name": "price",
          "type": "uint256"
        }
      ],
      "stateMutability": "view",
      "type": "function"
    },
    {
      "inputs": [],
      "name": "symbol",
      "outputs": [
        {
          "internalType": "string",
          "name": "",
          "type": "string"
        }
      ],
      "stateMutability": "view",
      "type": "function"
    },
    {
      "inputs": [],
      "name": "totalSupply",
      "outputs": [
        {
          "internalType": "uint256",
          "name": "",
          "type": "uint256"
        }
      ],
      "stateMutability": "view",
      "type": "function"
    },
    {
      "inputs": [
        {
          "internalType": "address",
          "name": "reciever",
          "type": "address"
        },
        {
          "internalType": "uint256",
          "name": "amount",
          "type": "uint256"
        }
      ],
      "name": "transfer",
      "outputs": [
        {
          "internalType": "bool",
          "name": "",
          "type": "bool"
        }
      ],
      "stateMutability": "nonpayable",
      "type": "function"
    },
    {
      "inputs": [
        {
          "internalType": "address",
          "name": "from",
          "type": "address"
        },
        {
          "internalType": "address",
          "name": "to",
          "type": "address"
        },
        {
          "internalType": "uint256",
          "name": "value",
          "type": "uint256"
        }
      ],
      "name": "transferFrom",
      "outputs": [
        {
          "internalType": "bool",
          "name": "",
          "type": "bool"
        }
      ],
      "stateMutability": "nonpayable",
      "type": "function"
    }
  ],
  "bytecode": "0x608060405260006006553480156200001657600080fd5b50604051620023393803806200233983398181016040528101906200003c9190620002a6565b828281600390816200004f91906200058b565b5080600490816200006191906200058b565b50505080600560006101000a81548173ffffffffffffffffffffffffffffffffffffffff021916908373ffffffffffffffffffffffffffffffffffffffff16021790555050505062000672565b6000604051905090565b600080fd5b600080fd5b600080fd5b600080fd5b6000601f19601f8301169050919050565b7f4e487b7100000000000000000000000000000000000000000000000000000000600052604160045260246000fd5b6200011782620000cc565b810181811067ffffffffffffffff82111715620001395762000138620000dd565b5b80604052505050565b60006200014e620000ae565b90506200015c82826200010c565b919050565b600067ffffffffffffffff8211156200017f576200017e620000dd565b5b6200018a82620000cc565b9050602081019050919050565b60005b83811015620001b75780820151818401526020810190506200019a565b60008484015250505050565b6000620001da620001d48462000161565b62000142565b905082815260208101848484011115620001f957620001f8620000c7565b5b6200020684828562000197565b509392505050565b600082601f830112620002265762000225620000c2565b5b815162000238848260208601620001c3565b91505092915050565b600073ffffffffffffffffffffffffffffffffffffffff82169050919050565b60006200026e8262000241565b9050919050565b620002808162000261565b81146200028c57600080fd5b50565b600081519050620002a08162000275565b92915050565b600080600060608486031215620002c257620002c1620000b8565b5b600084015167ffffffffffffffff811115620002e357620002e2620000bd565b5b620002f1868287016200020e565b935050602084015167ffffffffffffffff811115620003155762000314620000bd565b5b62000323868287016200020e565b925050604062000336868287016200028f565b9150509250925092565b600081519050919050565b7f4e487b7100000000000000000000000000000000000000000000000000000000600052602260045260246000fd5b600060028204905060018216806200039357607f821691505b602082108103620003a957620003a86200034b565b5b50919050565b60008190508160005260206000209050919050565b60006020601f8301049050919050565b600082821b905092915050565b600060088302620004137fffffffffffffffffffffffffffffffffffffffffffffffffffffffffffffffff82620003d4565b6200041f8683620003d4565b95508019841693508086168417925050509392505050565b6000819050919050565b6000819050919050565b60006200046c62000466620004608462000437565b62000441565b62000437565b9050919050565b6000819050919050565b62000488836200044b565b620004a0620004978262000473565b848454620003e1565b825550505050565b600090565b620004b7620004a8565b620004c48184846200047d565b505050565b5b81811015620004ec57620004e0600082620004ad565b600181019050620004ca565b5050565b601f8211156200053b576200050581620003af565b6200051084620003c4565b8101602085101562000520578190505b620005386200052f85620003c4565b830182620004c9565b50505b505050565b600082821c905092915050565b6000620005606000198460080262000540565b1980831691505092915050565b60006200057b83836200054d565b9150826002028217905092915050565b620005968262000340565b67ffffffffffffffff811115620005b257620005b1620000dd565b5b620005be82546200037a565b620005cb828285620004f0565b600060209050601f831160018114620006035760008415620005ee578287015190505b620005fa85826200056d565b8655506200066a565b601f1984166200061386620003af565b60005b828110156200063d5784890151825560018201915060208501945060208101905062000616565b868310156200065d578489015162000659601f8916826200054d565b8355505b6001600288020188555050505b505050505050565b611cb780620006826000396000f3fe608060405234801561001057600080fd5b50600436106101165760003560e01c806342966c68116100a25780638da5cb5b116100715780638da5cb5b146102e357806395d89b4114610301578063a9059cbb1461031f578063dd62ed3e1461034f578063f8b2cb4f1461037f57610116565b806342966c681461024757806343cdef601461026357806370a082311461028157806376b655f5146102b157610116565b806318160ddd116100e957806318160ddd146101a157806323b872dd146101bf578063313ce567146101ef57806340c10f191461020d578063410d59cc1461022957610116565b8063013054c21461011b57806306fdde031461013757806307c4733a14610155578063095ea7b314610171575b600080fd5b610135600480360381019061013091906111a8565b6103af565b005b61013f610455565b60405161014c9190611265565b60405180910390f35b61016f600480360381019061016a91906113bc565b6104e7565b005b61018b60048036038101906101869190611476565b61060f565b60405161019891906114d1565b60405180910390f35b6101a9610632565b6040516101b691906114fb565b60405180910390f35b6101d960048036038101906101d49190611516565b61063c565b6040516101e691906114d1565b60405180910390f35b6101f761066b565b6040516102049190611585565b60405180910390f35b61022760048036038101906102229190611476565b610674565b005b610231610712565b60405161023e919061170b565b60405180910390f35b610261600480360381019061025c91906111a8565b610817565b005b61026b610824565b60405161027891906114fb565b60405180910390f35b61029b6004803603810190610296919061172d565b61082a565b6040516102a891906114fb565b60405180910390f35b6102cb60048036038101906102c691906111a8565b610872565b6040516102da9392919061175a565b60405180910390f35b6102eb610934565b6040516102f891906117a7565b60405180910390f35b61030961095a565b6040516103169190611265565b60405180910390f35b61033960048036038101906103349190611476565b6109ec565b60405161034691906114d1565b60405180910390f35b610369600480360381019061036491906117c2565b610a00565b60405161037691906114fb565b60405180910390f35b6103996004803603810190610394919061172d565b610a87565b6040516103a691906114fb565b60405180910390f35b6000600782815481106103c5576103c4611802565b5b9060005260206000209060030201600201549050806103e333610a87565b1015610424576040517f08c379a000000000000000000000000000000000000000000000000000000000815260040161041b9061187d565b60405180910390fd5b610450600560009054906101000a900473ffffffffffffffffffffffffffffffffffffffff16826109ec565b505050565b606060038054610464906118cc565b80601f0160208091040260200160405190810160405280929190818152602001828054610490906118cc565b80156104dd5780601f106104b2576101008083540402835291602001916104dd565b820191906000526020600020905b8154815290600101906020018083116104c057829003601f168201915b5050505050905090565b600560009054906101000a900473ffffffffffffffffffffffffffffffffffffffff1673ffffffffffffffffffffffffffffffffffffffff163373ffffffffffffffffffffffffffffffffffffffff1614610577576040517f08c379a000000000000000000000000000000000000000000000000000000000815260040161056e90611949565b60405180910390fd5b60006040518060600160405280600654815260200184815260200183815250905060078190806001815401808255809150506001900390600052602060002090600302016000909190919091506000820151816000015560208201518160010190816105e39190611b15565b506040820151816002015550506001600660008282546106039190611c16565b92505081905550505050565b60008061061a610a99565b9050610627818585610aa1565b600191505092915050565b6000600254905090565b600080610647610a99565b9050610654858285610ab3565b61065f858585610b47565b60019150509392505050565b60006012905090565b600560009054906101000a900473ffffffffffffffffffffffffffffffffffffffff1673ffffffffffffffffffffffffffffffffffffffff163373ffffffffffffffffffffffffffffffffffffffff1614610704576040517f08c379a00000000000000000000000000000000000000000000000000000000081526004016106fb90611949565b60405180910390fd5b61070e8282610c3b565b5050565b60606007805480602002602001604051908101604052809291908181526020016000905b8282101561080e578382906000526020600020906003020160405180606001604052908160008201548152602001600182018054610773906118cc565b80601f016020809104026020016040519081016040528092919081815260200182805461079f906118cc565b80156107ec5780601f106107c1576101008083540402835291602001916107ec565b820191906000526020600020905b8154815290600101906020018083116107cf57829003601f168201915b5050505050815260200160028201548152505081526020019060010190610736565b50505050905090565b6108213382610cbd565b50565b60065481565b60008060008373ffffffffffffffffffffffffffffffffffffffff1673ffffffffffffffffffffffffffffffffffffffff168152602001908152602001600020549050919050565b6007818154811061088257600080fd5b90600052602060002090600302016000915090508060000154908060010180546108ab906118cc565b80601f01602080910402602001604051908101604052809291908181526020018280546108d7906118cc565b80156109245780601f106108f957610100808354040283529160200191610924565b820191906000526020600020905b81548152906001019060200180831161090757829003601f168201915b5050505050908060020154905083565b600560009054906101000a900473ffffffffffffffffffffffffffffffffffffffff1681565b606060048054610969906118cc565b80601f0160208091040260200160405190810160405280929190818152602001828054610995906118cc565b80156109e25780601f106109b7576101008083540402835291602001916109e2565b820191906000526020600020905b8154815290600101906020018083116109c557829003601f168201915b5050505050905090565b60006109f88383610d3f565b905092915050565b6000600160008473ffffffffffffffffffffffffffffffffffffffff1673ffffffffffffffffffffffffffffffffffffffff16815260200190815260200160002060008373ffffffffffffffffffffffffffffffffffffffff1673ffffffffffffffffffffffffffffffffffffffff16815260200190815260200160002054905092915050565b6000610a928261082a565b9050919050565b600033905090565b610aae8383836001610d62565b505050565b6000610abf8484610a00565b90507fffffffffffffffffffffffffffffffffffffffffffffffffffffffffffffffff8114610b415781811015610b31578281836040517ffb8f41b2000000000000000000000000000000000000000000000000000000008152600401610b2893929190611c4a565b60405180910390fd5b610b4084848484036000610d62565b5b50505050565b600073ffffffffffffffffffffffffffffffffffffffff168373ffffffffffffffffffffffffffffffffffffffff1603610bb95760006040517f96c6fd1e000000000000000000000000000000000000000000000000000000008152600401610bb091906117a7565b60405180910390fd5b600073ffffffffffffffffffffffffffffffffffffffff168273ffffffffffffffffffffffffffffffffffffffff1603610c2b5760006040517fec442f05000000000000000000000000000000000000000000000000000000008152600401610c2291906117a7565b60405180910390fd5b610c36838383610f39565b505050565b600073ffffffffffffffffffffffffffffffffffffffff168273ffffffffffffffffffffffffffffffffffffffff1603610cad5760006040517fec442f05000000000000000000000000000000000000000000000000000000008152600401610ca491906117a7565b60405180910390fd5b610cb960008383610f39565b5050565b600073ffffffffffffffffffffffffffffffffffffffff168273ffffffffffffffffffffffffffffffffffffffff1603610d2f5760006040517f96c6fd1e000000000000000000000000000000000000000000000000000000008152600401610d2691906117a7565b60405180910390fd5b610d3b82600083610f39565b5050565b600080610d4a610a99565b9050610d57818585610b47565b600191505092915050565b600073ffffffffffffffffffffffffffffffffffffffff168473ffffffffffffffffffffffffffffffffffffffff1603610dd45760006040517fe602df05000000000000000000000000000000000000000000000000000000008152600401610dcb91906117a7565b60405180910390fd5b600073ffffffffffffffffffffffffffffffffffffffff168373ffffffffffffffffffffffffffffffffffffffff1603610e465760006040517f94280d62000000000000000000000000000000000000000000000000000000008152600401610e3d91906117a7565b60405180910390fd5b81600160008673ffffffffffffffffffffffffffffffffffffffff1673ffffffffffffffffffffffffffffffffffffffff16815260200190815260200160002060008573ffffffffffffffffffffffffffffffffffffffff1673ffffffffffffffffffffffffffffffffffffffff168152602001908152602001600020819055508015610f33578273ffffffffffffffffffffffffffffffffffffffff168473ffffffffffffffffffffffffffffffffffffffff167f8c5be1e5ebec7d5bd14f71427d1e84f3dd0314c0f7b2291e5b200ac8c7c3b92584604051610f2a91906114fb565b60405180910390a35b50505050565b600073ffffffffffffffffffffffffffffffffffffffff168373ffffffffffffffffffffffffffffffffffffffff1603610f8b578060026000828254610f7f9190611c16565b9250508190555061105e565b60008060008573ffffffffffffffffffffffffffffffffffffffff1673ffffffffffffffffffffffffffffffffffffffff16815260200190815260200160002054905081811015611017578381836040517fe450d38c00000000000000000000000000000000000000000000000000000000815260040161100e93929190611c4a565b60405180910390fd5b8181036000808673ffffffffffffffffffffffffffffffffffffffff1673ffffffffffffffffffffffffffffffffffffffff16815260200190815260200160002081905550505b600073ffffffffffffffffffffffffffffffffffffffff168273ffffffffffffffffffffffffffffffffffffffff16036110a757806002600082825403925050819055506110f4565b806000808473ffffffffffffffffffffffffffffffffffffffff1673ffffffffffffffffffffffffffffffffffffffff168152602001908152602001600020600082825401925050819055505b8173ffffffffffffffffffffffffffffffffffffffff168373ffffffffffffffffffffffffffffffffffffffff167fddf252ad1be2c89b69c2b068fc378daa952ba7f163c4a11628f55a4df523b3ef8360405161115191906114fb565b60405180910390a3505050565b6000604051905090565b600080fd5b600080fd5b6000819050919050565b61118581611172565b811461119057600080fd5b50565b6000813590506111a28161117c565b92915050565b6000602082840312156111be576111bd611168565b5b60006111cc84828501611193565b91505092915050565b600081519050919050565b600082825260208201905092915050565b60005b8381101561120f5780820151818401526020810190506111f4565b60008484015250505050565b6000601f19601f8301169050919050565b6000611237826111d5565b61124181856111e0565b93506112518185602086016111f1565b61125a8161121b565b840191505092915050565b6000602082019050818103600083015261127f818461122c565b905092915050565b600080fd5b600080fd5b7f4e487b7100000000000000000000000000000000000000000000000000000000600052604160045260246000fd5b6112c98261121b565b810181811067ffffffffffffffff821117156112e8576112e7611291565b5b80604052505050565b60006112fb61115e565b905061130782826112c0565b919050565b600067ffffffffffffffff82111561132757611326611291565b5b6113308261121b565b9050602081019050919050565b82818337600083830152505050565b600061135f61135a8461130c565b6112f1565b90508281526020810184848401111561137b5761137a61128c565b5b61138684828561133d565b509392505050565b600082601f8301126113a3576113a2611287565b5b81356113b384826020860161134c565b91505092915050565b600080604083850312156113d3576113d2611168565b5b600083013567ffffffffffffffff8111156113f1576113f061116d565b5b6113fd8582860161138e565b925050602061140e85828601611193565b9150509250929050565b600073ffffffffffffffffffffffffffffffffffffffff82169050919050565b600061144382611418565b9050919050565b61145381611438565b811461145e57600080fd5b50565b6000813590506114708161144a565b92915050565b6000806040838503121561148d5761148c611168565b5b600061149b85828601611461565b92505060206114ac85828601611193565b9150509250929050565b60008115159050919050565b6114cb816114b6565b82525050565b60006020820190506114e660008301846114c2565b92915050565b6114f581611172565b82525050565b600060208201905061151060008301846114ec565b92915050565b60008060006060848603121561152f5761152e611168565b5b600061153d86828701611461565b935050602061154e86828701611461565b925050604061155f86828701611193565b9150509250925092565b600060ff82169050919050565b61157f81611569565b82525050565b600060208201905061159a6000830184611576565b92915050565b600081519050919050565b600082825260208201905092915050565b6000819050602082019050919050565b6115d581611172565b82525050565b600082825260208201905092915050565b60006115f7826111d5565b61160181856115db565b93506116118185602086016111f1565b61161a8161121b565b840191505092915050565b600060608301600083015161163d60008601826115cc565b506020830151848203602086015261165582826115ec565b915050604083015161166a60408601826115cc565b508091505092915050565b60006116818383611625565b905092915050565b6000602082019050919050565b60006116a1826115a0565b6116ab81856115ab565b9350836020820285016116bd856115bc565b8060005b858110156116f957848403895281516116da8582611675565b94506116e583611689565b925060208a019950506001810190506116c1565b50829750879550505050505092915050565b600060208201905081810360008301526117258184611696565b905092915050565b60006020828403121561174357611742611168565b5b600061175184828501611461565b91505092915050565b600060608201905061176f60008301866114ec565b8181036020830152611781818561122c565b905061179060408301846114ec565b949350505050565b6117a181611438565b82525050565b60006020820190506117bc6000830184611798565b92915050565b600080604083850312156117d9576117d8611168565b5b60006117e785828601611461565b92505060206117f885828601611461565b9150509250929050565b7f4e487b7100000000000000000000000000000000000000000000000000000000600052603260045260246000fd5b7f596f7520646f6e2774206861766520656e6f75676820546f6b656e7300000000600082015250565b6000611867601c836111e0565b915061187282611831565b602082019050919050565b600060208201905081810360008301526118968161185a565b9050919050565b7f4e487b7100000000000000000000000000000000000000000000000000000000600052602260045260246000fd5b600060028204905060018216806118e457607f821691505b6020821081036118f7576118f661189d565b5b50919050565b7f596f7520617265206e6f7420746865204f776e65720000000000000000000000600082015250565b60006119336015836111e0565b915061193e826118fd565b602082019050919050565b6000602082019050818103600083015261196281611926565b9050919050565b60008190508160005260206000209050919050565b60006020601f8301049050919050565b600082821b905092915050565b6000600883026119cb7fffffffffffffffffffffffffffffffffffffffffffffffffffffffffffffffff8261198e565b6119d5868361198e565b95508019841693508086168417925050509392505050565b6000819050919050565b6000611a12611a0d611a0884611172565b6119ed565b611172565b9050919050565b6000819050919050565b611a2c836119f7565b611a40611a3882611a19565b84845461199b565b825550505050565b600090565b611a55611a48565b611a60818484611a23565b505050565b5b81811015611a8457611a79600082611a4d565b600181019050611a66565b5050565b601f821115611ac957611a9a81611969565b611aa38461197e565b81016020851015611ab2578190505b611ac6611abe8561197e565b830182611a65565b50505b505050565b600082821c905092915050565b6000611aec60001984600802611ace565b1980831691505092915050565b6000611b058383611adb565b9150826002028217905092915050565b611b1e826111d5565b67ffffffffffffffff811115611b3757611b36611291565b5b611b4182546118cc565b611b4c828285611a88565b600060209050601f831160018114611b7f5760008415611b6d578287015190505b611b778582611af9565b865550611bdf565b601f198416611b8d86611969565b60005b82811015611bb557848901518255600182019150602085019450602081019050611b90565b86831015611bd25784890151611bce601f891682611adb565b8355505b6001600288020188555050505b505050505050565b7f4e487b7100000000000000000000000000000000000000000000000000000000600052601160045260246000fd5b6000611c2182611172565b9150611c2c83611172565b9250828201905080821115611c4457611c43611be7565b5b92915050565b6000606082019050611c5f6000830186611798565b611c6c60208301856114ec565b611c7960408301846114ec565b94935050505056fea2646970667358221220dc4b184c97ce3f51e083463f0a94b68e83cb579c65f5400b57f343acd20a6f8764736f6c63430008150033",
  "linkReferences": {},
  "deployedLinkReferences": {}
}